S01200007A686F6E6766613132382E737265638A
S113000045C0000060C000005EC000005CC000008D
S11300105AC0000058C0000056C0000054C0000080
S113002052C0000050C000004EC000004CC0000090
S11300304AC0000048C0000046C0000044C00000A0
S113004042C0000088C000003BC100003CC000006A
S11300503AC0000038C0000036C0000034C00000C0
S113006032C0000030C000002EC000002CC00000D0
S11300702AC0000028C000004DC1000024C00000B8
S113008022C0000020C000001EC0000011241FBEBA
S1130090CFEFD0E1DEBFCDBF11E0A0E0B1E0E0E101
S11300A0F7E000E00BBF02C007900D92AC3DB10732
S11300B0D9F722E0ACEDB1E001C01D92AD3AB20730
S11300C0E1F76FD123C39CCFE199FECF17C3089505
S11300D0009791F040E050E075E764E00AC02150D9
S11300E0310921153105D9F74F5F5F4F481759077B
S11300F019F0272F362FF3CF08958AB387608ABB70
S11301008BB3887F8BBB0895D8980895D89A0895A7
S11301106E986F9877986C98BB9AB998BA98B89873
S1130120C09A8DB183608DB977988DB1806C8DB98B
S113013008956F9877986C9ABB98B99ABA9AB89AB6
S1130140C0988DB183608DB977986E9A08958FB9F0
S1130150779BFECF08951F920F920FB60F92112432
S11301600BB60F922F933F934F935F936F937F93AD
S11301708F939F93AF93BF93EF93FF936FB18CEDE6
S113018091E025D0FF91EF91BF91AF919F918F9115
S11301907F916F915F914F913F912F910F900BBE83
S11301A00F900FBE0F901F901895FC0120E030E0D7
S11301B011922F5F3F4F24363105D1F7FC01EA59E4
S11301C0FF4F118210823297118210820895CF93CB
S11301D09C01C62FFC01EA59FF4F0190F081E02DEC
S11301E0CF01019664E670E062D2D901AC59BF4FE9
S11301F04D915C918417950759F0E20FF31FC0836A
S1130200F901EA59FF4F9183808381E090E002C0B5
S113021080E090E0CF910895FC01EC59FF4F2081DC
S1130220318132964081518124173507A1F0FC01B8
S1130230E20FF31F2081FB012083FC01EC59FF4FE7
S113024080819181019664E670E031D2918380834C
S113025081E090E0089580E090E008951BB81AB81A
S1130260E5E9F0E086E080838081877F808388E011
S113027089B91092900088E98AB9119A0895109268
S11302809B00AAE9B0E01C92EDE9F0E086E08083EF
S11302908081877F808388E0809399001092980002
S11302A088E98C938B9A08955D9BFECF8CB9089551
S11302B0EBE9F0E0908195FFFDCF80939C000895D9
S11302C01F920F920FB60F9211240BB60F922F9319
S11302D03F934F935F936F937F938F939F93AF93CA
S11302E0BF93EF93FF936CB184E492E070DFFF91CE
S11302F0EF91BF91AF919F918F917F916F915F919A
S11303004F913F912F910F900BBE0F900FBE0F9006
S11303101F9018951F920F920FB60F9211240BB6CF
S11303200F922F933F934F935F936F937F938F938A
S11303309F93AF93BF93EF93FF9360919C0084E4EA
S113034092E045DFFF91EF91BF91AF919F918F9123
S11303507F916F915F914F913F912F910F900BBEC1
S11303600F900FBE0F901F901895CF93DF93EC0161
S11303708881882329F0219697DF89918111FCCF08
S1130380DF91CF910895CF93DF93EC018881882387
S113039029F021968DDF89918111FCCFDF91CF91D6
S11303A00895CF93DF93CDB7DEB7C355D1090FB608
S11303B0F894DEBF0FBECDBF80ED97E089DE8FB726
S11303C08F778FBF9ADEA4DE17981F9A13981B9A13
S11303D045DF55DF84E492E0E8DE8CED91E0E5DE74
S11303E08FB780688FBF0F2EF8EA6F2EF2E07F2E52
S11303F0F02D0F2EFAEA4F2EF2E05F2EF02D0F2E85
S1130400F0E4AF2EF2E0BF2EF02D0F2EF2E4CF2E4B
S1130410F2E0DF2EF02D8AE090E05ADE0B99F8C06E
S113042075DE88EE93E054DE6FDE88EE93E050DEF6
S113043080E090E049DE6894332431F800E010E075
S1130440812C912C64961FAE1EAE649762961FAEEB
S11304501EAE6297E12CF12C01C033949FEF930DF3
S1130460813119F40F5F1F4F43C00115110561F469
S1130470E3E0F0E0EC0FFD1FEE0DFF1D808397011C
S11304802F5F3F4F79010FC10130110591F4E6E16F
S1130490F0E0EC0FFD1F62962EAD3FAD6297E20FC8
S11304A0F31F80832F5F3F4F62963FAF2EAF62975B
S11304B0FAC00230110591F4EEE1F0E0EC0FFD1FFB
S11304C064962EAD3FAD6497E20FF31F80832F5FD8
S11304D03F4F64963FAF2EAF6497E5C0EFE3F0E083
S11304E0EC0FFD1FE80DF91D8083F40131964F01D7
S11304F0892F90E0E9DD043011050CF4AECFFE0144
S1130500EE0DFF1D13826296EEADFFAD6297EC0F08
S1130510FD1F168A6496EEADFFAD6497EC0FFD1FC8
S1130520168EEFE3F0E0EC0FFD1FE80DF91D1082CD
S11305300F9B4AC080E091E018DF80E197E2C8DDBC
S11305408EE091E012DF80E197E2C2DD87E191E085
S11305500CDFCE014E9609DF82E291E006DFCE0188
S1130560CF9603DF86E291E000DF80E197E2B0DD21
S11305708AE291E0FADE80E197E2AADD88E391E085
S1130580F4DE82E291DECE010396EFDE82E28CDEBF
S11305908CE28ADECE014696E8DE8DE085DE8AE0D6
S11305A083DE80E197E294DD8BE491E0DEDE80E19E
S11305B097E28EDD8AE591E0D8DE80E197E288DD7E
S11305C087E691E0D2DE24C085E791E0DCDE80E1BD
S11305D097E27EDD8DE891E0D6DECE010396D3DE90
S11305E089E491E0D0DECE014696CDDE8EEA91E03C
S11305F0CADE80E197E26CDD8DEB91E0C4DE80E140
S113060097E266DD80E197E263DD8FEC91E0BBDE8B
S1130610F30120813181F20180819181281739070A
S113062009F437C0C09BFECF8AE090E051DDC0984A
S11306306F987FDD8AE090E04BDDF301208131810A
S1130640F201808191812817390791F0BE016E5F14
S11306507F4F84E492E0E0DD8A8190E078DDF3016D
S113066020813181F201808191812817390771F746
S11306708FB18A834DDD0DC0BE016F5F7F4F8CED5E
S113068091E0CADD0F9B03C089810EDE02C089811F
S11306900FDEF50120813181F601808191812817D7
S11306A0390751F7B8CE892F90E00EDDD6CE97FBEF
S11306B0072E16F4009406D077FD08D00BD007FC63
S11306C005D03EF4909581959F4F0895709561955E
S11306D07F4F0895AA1BBB1B51E107C0AA1FBB1F74
S11306E0A617B70710F0A61BB70B881F991F5A95BA
S11306F0A9F780959095BC01CD010895E199FECFAD
S11307009FBB8EBBE09A99278DB30895F894FFCFD1
S113071041542B43574D4F44453D310D0A0041543C
S11307202B5253540D0A0041542B43574A41503D18
S11307302200222C2200220D0A0041542B4349504E
S11307404D55583D300D0A0041542B4349505354E4
S11307504152543D22544350222C0041542B4349CE
S1130760504D4F44453D310D0A0041542B434950EF
S113077053454E440D0A00776966696D6F64756C64
S113078065206F6B00636F6E6669672C7365742CEC
S1130790706172616D7372632C310D0A00636F6E48
S11307A06669672C7365742C7463702C312C7474B3
S11307B06C756172742C312C312C2C312C002C3042
S11307C02C302C302C302C302C300D0A00636F6E02
S11307D06669672C7365742C736176650D0A003441
S10F07E0476D6F64756C65206F6B000042
S9030000FC
