S00B00003132382E737265637E
S11300000C9446000C9465000C9465000C946500F7
S11300100C9465000C9465000C9465000C946500C8
S11300200C9465000C9465000C9465000C946500B8
S11300300C9465000C9465000C9465000C946500A8
S11300400C9465000C946D020C9446040C946500A9
S11300500C9465000C9465000C9465000C94650088
S11300600C9465000C9465000C9465000C94650078
S11300700C9465000C9465000C9482040C94650047
S11300800C9465000C9465000C94650011241FBE4B
S1130090CFEFD0E1DEBFCDBF12E0A0E0B1E0E4E2FB
S11300A0F6E100E00BBF02C007900D92AC34B1073B
S11300B0D9F723E0ACE4B2E001C01D92A833B20743
S11300C0E1F70E9460060C94100B0C940000CF938F
S11300D0DF9300D0CDB7DEB79A8389838CE390E0B9
S11300E0FC018081882F90E0827099270097B1F7F6
S11300F089819A810E94FB0A0F900F90DF91CF9122
S11301000895CF93DF9300D01F92CDB7DEB79A83C3
S113011089836B838CE390E0FC018081882F90E0DD
S1130120827099270097B1F789819A816B810E9427
S1130130030B0F900F900F90DF91CF910895CF9301
S1130140DF9300D000D000D0CDB7DEB79E838D837F
S11301501A82198213C01C821B8205C08B819C8168
S113016001969C838B838B819C81853724E0920745
S1130170A8F389819A8101969A83898329813A8196
S11301808D819E812817390730F326960FB6F8948F
S1130190DEBF0FBECDBFDF91CF910895CF93DF9324
S11301A0CDB7DEB78AE390E02AE330E0F90120819D
S11301B02760FC0120838BE390E02BE330E0F9011E
S11301C020812E7FFC0120838BE390E02BE330E041
S11301D0F90120812660FC012083DF91CF910895ED
S11301E0CF93DF93CDB7DEB78BE390E02BE330E022
S11301F0F90120812B7FFC012083DF91CF910895A9
S1130200CF93DF9300D0CDB7DEB79A8389838BE396
S113021090E02BE330E0F90120812D7FFC01208365
S11302200F900F90DF91CF910895CF93DF93CDB7C7
S1130230DEB78BE390E02BE330E0F90120812E7FE1
S1130240FC012083DF91CF910895CF93DF93CDB745
S1130250DEB78BE390E02BE330E0F90120812460EA
S1130260FC012083DF91CF910895CF93DF93CDB725
S1130270DEB78BE390E02BE330E0F90120812260CC
S1130280FC012083DF91CF910895CF93DF93CDB705
S1130290DEB78BE390E02BE330E0F90120812160AD
S11302A0FC012083DF91CF910895CF93DF93CDB7E5
S11302B0DEB78DE290E02DE230E0F90120812F7B62
S11302C0FC0120838DE290E02DE230E0F9012081F1
S11302D02F77FC0120838EE290E02EE230E0F901DA
S11302E020812F77FC0120838DE290E02DE230E025
S11302F0F90120812F7EFC01208387E390E027E32E
S113030030E0F90120812860FC01208387E390E03C
S113031027E330E0F90120812D7FFC01208387E36E
S113032090E027E330E0F90120812B7FFC0120835A
S113033087E390E027E330E0F90120812E7FFC0180
S1130340208388E390E028E330E0F90120812160F4
S1130350FC0120838DE290E02DE230E0F901208160
S11303602360FC0120838EE290E02EE230E0F9016C
S113037020812F77FC0120838DE290E02DE230E094
S1130380F9012081206CFC012083DF91CF91089535
S1130390CF93DF93CDB7DEB7000088E390E0FC0194
S11303A08081882F90E0817099270097B1F38AE0CB
S11303B090E00E949F0088E390E028E330E0F90198
S11303C020812E7FFC0120838DE290E02DE230E03D
S11303D0F90120812F77FC0120838DE290E02DE24A
S11303E030E0F90120812F77FC0120838EE290E038
S11303F02EE230E0F90120812F77FC0120838DE289
S113040090E02DE230E0F90120812061FC0120839D
S113041087E390E027E330E0F9012081277FFC01A6
S1130420208387E390E027E330E0F9012081226014
S1130430FC01208387E390E027E330E0F901208189
S11304402460FC01208387E390E027E330E0F90196
S113045020812160FC01208388E390E028E330E0E0
S1130460F90120812E7FFC0120838DE290E02DE2B2
S113047030E0F90120812360FC0120838EE290E0CA
S11304802EE230E0F90120812F77FC0120838DE2F8
S113049090E02DE230E0F90120812064FC0120830A
S11304A08AE090E00E949F00DF91CF910895CF935E
S11304B0DF931F92CDB7DEB789838FE290E0298165
S11304C0FC01208300008EE290E0FC0180818823FF
S11304D0D4F70F90DF91CF9108951F920F9200905F
S11304E05F000F92112400905B000F922F933F93B3
S11304F04F935F936F937F938F939F93AF93BF9328
S1130500EF93FF93CF93DF931F92CDB7DEB78FE2C4
S113051090E0FC018081898369818CE492E00E94EF
S113052004030F90DF91CF91FF91EF91BF91AF91B1
S11305309F918F917F916F915F914F913F912F91F7
S11305400F9000925B000F9000925F000F901F903D
S11305501895CF93DF9300D0CDB7DEB79A83898304
S11305600E94C8010BC089819A81FC0180810E948C
S1130570570289819A8101969A83898389819A8114
S1130580FC018081882379F70E9455010F900F9018
S1130590DF91CF910895CF93DF9300D000D0CDB7F2
S11305A0DEB79C838B831A8219820DC02B813C8118
S11305B089819A81820F931FFC01108289819A811B
S11305C001969A83898389819A818436910574F38B
S11305D08B819C818A599F4FFC01118210828B81EF
S11305E09C818A599F4FFC01208131818B819C81A0
S11305F08C599F4FFC01318320830F900F900F90F3
S11306000F90DF91CF910895CF93DF93CDB7DEB7ED
S113061027970FB6F894DEBF0FBECDBF9A838983A8
S11306206B8389819A818A599F4FFC0180819181D2
S1130630019624E630E0B9010E94D30A9C01898125
S11306409A818C599F4FFC01808191812817390729
S113065019F480E090E025C089819A818A599F4FDE
S1130660FC018081918129813A81820F931F2B8122
S1130670FC01208389819A818A599F4FFC018081E2
S11306809181019624E630E0B9010E94D30A9C01CD
S113069089819A818A599F4FFC013183208381E0AB
S11306A090E027960FB6F894DEBF0FBECDBFDF9162
S11306B0CF910895CF93DF9300D000D000D0CDB771
S11306C0DEB79A8389837C836B8389819A818C5971
S11306D09F4FFC012081318189819A818A599F4FE2
S11306E0FC01808191812817390719F480E090E09A
S11306F028C089819A818C599F4FFC018081918106
S113070029813A81820F931FFC0120818B819C8176
S1130710FC01208389819A818C599F4FFC0180813F
S11307209181019624E630E0B9010E94D30A9C012C
S113073089819A818C599F4FFC013183208381E008
S113074090E026960FB6F894DEBF0FBECDBFDF91C2
S1130750CF910895CF93DF93CDB7DEB78BE290E0CE
S1130760FC0110828AE290E0FC01108285E990E0AD
S113077026E0FC01208385E990E025E930E0F901D9
S11307802081277FFC01208389E290E028E0FC019E
S1130790208380E990E0FC0110828AE290E028E95D
S11307A0FC01208382E290E022E230E0F901208122
S11307B02260FC012083DF91CF910895CF93DF93D2
S11307C0CDB7DEB78BE990E0FC0110828AE990E0B6
S11307D0FC0110828DE990E026E0FC0120838DE984
S11307E090E02DE930E0F9012081277FFC0120838E
S11307F089E990E027E6FC01208388E990E0FC0188
S113080010828AE990E028E9FC01208381E390E0EA
S113081021E330E0F90120812860FC012083DF918D
S1130820CF910895CF93DF931F92CDB7DEB789831D
S113083000008BE290E0FC018081882F90E08072C0
S113084099270097B1F38CE290E02981FC01208381
S11308500F90DF91CF910895CF93DF931F92CDB77F
S1130860DEB7898300008BE990E0FC018081882F4A
S113087090E0807299270097B1F38CE990E0298188
S1130880FC0120830F90DF91CF9108951F920F9266
S113089000905F000F92112400905B000F922F9341
S11308A03F934F935F936F937F938F939F93AF93F4
S11308B0BF93EF93FF93CF93DF931F92CDB7DEB730
S11308C08CE290E0FC0180818983698184EB92E071
S11308D00E9404030F90DF91CF91FF91EF91BF919C
S11308E0AF919F918F917F916F915F914F913F91C4
S11308F02F910F9000925B000F9000925F000F9079
S11309001F9018951F920F9200905F000F92112470
S113091000905B000F922F933F934F935F936F93DD
S11309207F938F939F93AF93BF93EF93FF93CF9353
S1130930DF931F92CDB7DEB78CE990E0FC01808194
S11309408983698184EB92E00E9404030F90DF9114
S1130950CF91FF91EF91BF91AF919F918F917F9133
S11309606F915F914F913F912F910F9000925B0097
S11309700F9000925F000F901F901895CF93DF9314
S113098000D0CDB7DEB79A8389830BC089819A8161
S1130990FC0180810E94120489819A8101969A83C4
S11309A0898389819A81FC018081882379F70F905A
S11309B00F90DF91CF910895CF93DF9300D0CDB7FF
S11309C0DEB79A8389830BC089819A81FC01808177
S11309D00E942C0489819A8101969A838983898152
S11309E09A81FC018081882379F70F900F90DF9121
S11309F0CF910895CF93DF9300D0CDB7DEB789832D
S1130A006A831AC00E94C8018A81882F90E00E94DC
S1130A1057020E94550191E089818F3409F090E0DA
S1130A202A8181E02B3409F080E08923882311F0A6
S1130A3081E00CC08A818983CE010296BC0184EBDB
S1130A4092E00E945A030097E9F680E00F900F901D
S1130A50DF91CF910895CF93DF9300D0CDB7DEB768
S1130A6089836A831AC00E94C8018A81882F90E012
S1130A700E9457020E94550191E089818F3609F046
S1130A8090E02A8181E02B3609F080E089238823D5
S1130A9011F081E00CC08A818983CE010296BC01E9
S1130AA084EB92E00E945A030097E9F680E00F90ED
S1130AB00F90DF91CF910895CF93DF9300D01F92D1
S1130AC0CDB7DEB78A836B830E9400010000CE019C
S1130AD00396BC0184EB92E00E945A030097B9F795
S1130AE080E091E00E94BE0488EE93E00E949F00A3
S1130AF00000CE010396BC0184EB92E00E945A03ED
S1130B000097B9F38B8189830E94C8018B81882F58
S1130B1090E00E9457020E9455018B81682F8981C1
S1130B200E94FA04882309F4C5C00000CE0103968C
S1130B30BC0184EB92E00E945A030097B9F78EE05F
S1130B4091E00E94BE0482E20E9412048DE193E0CF
S1130B500E94BE0482E20E9412048CE20E941204EB
S1130B6080E393E00E94BE048DE00E9412048AE0B8
S1130B700E94120488EE93E00E949F000000CE01C0
S1130B800396BC0184EB92E00E945A030097B9F3E8
S1130B908B8189830E94C8018B81882F90E00E94F9
S1130BA057020E9455018B81682F89810E94FA04A3
S1130BB0882309F47FC00000CE010396BC0184EBB6
S1130BC092E00E945A030097B9F781E291E00E94F3
S1130BD0BE0488EE93E00E949F000000CE010396BD
S1130BE0BC0184EB92E00E945A030097B9F38B8115
S1130BF089830E94C8018B81882F90E00E9457024C
S1130C000E9455018B81682F89810E94FA048823F0
S1130C1009F450C00000CE010396BC0184EB92E0BD
S1130C200E945A030097B9F780E391E00E94BE0442
S1130C3088EE93E00E949F000000CE010396BC0161
S1130C4084EB92E00E945A030097B9F38B81898365
S1130C500E94C8018B81882F90E00E9457020E9455
S1130C6055018B81682F89810E94FA04882311F130
S1130C700E94F0008DE391E00E94BE048DE290E0BA
S1130C802DE230E0F90120812F77FC012083000060
S1130C90CE010396BC018CE492E00E945A030097B3
S1130CA0B9F78DE290E02DE230E0F901208120686F
S1130CB0FC0120830F900F900F90DF91CF91089546
S1130CC0CF93DF93CDB7DEB769970FB6F894DEBF45
S1130CD00FBECDBF80ED97E00E949F008FE590E0AE
S1130CE02FE530E0F90120812F77FC0120830E9459
S1130CF0CE000E94550182E290E022E230E0F90148
S1130D0020812F77FC01208383E290E023E230E00E
S1130D10F90120812068FC01208382E290E022E234
S1130D2030E0F9012081277FFC01208383E290E0F9
S1130D3023E230E0F90120812860FC0120830E9435
S1130D40AA030E94DE0384EB92E00E94CB028CE4AF
S1130D5092E00E94CB0219821A821F8A1B82198E8A
S1130D601D861C861F861E86198A188A1A8A1B8A63
S1130D708FE590E02FE530E0F90120812068FC0147
S1130D80208384E690E00E949F0081E290E0FC01D1
S1130D90808188708D8B8D89882309F039C30E94E6
S1130DA035010E942501198618861B861A860E9421
S1130DB0450188EE93E00E949F000E9415018BE498
S1130DC091E00E94BE0480ED97E00E949F001B8A80
S1130DD08B8991E0980F9B8B882F90E00E9467008D
S1130DE08C8B2FC08C89803431F488899989019641
S1130DF0998B888B1DC088899989009769F48C85A3
S1130E009D859C012F5F3F4F3D872C87835E9C4FC0
S1130E102C89FC0120830CC08E859F859C012F5F4B
S1130E203F4F3F872E87805D9C4F2C89FC01208398
S1130E308B8991E0980F9B8B882F90E00E9467002C
S1130E408C8B888999898230910564F28C859D8583
S1130E50835E9C4FFC0110828E859F85805D9C4F34
S1130E60FC0110821B8A1D861C861F861E86198A19
S1130E70188A8DE193E00E94A90280E393E00E9426
S1130E80A90281E290E0FC01808180788E8B8E89BA
S1130E90882309F4EDC10000CE014796BC0184EB20
S1130EA092E00E945A030097B9F78FE491E00E9400
S1130EB0BE0488EE93E00E949F000000CE01479696
S1130EC0BC0184EB92E00E945A030097B9F38A8133
S1130ED089838F898A830E94C8018F89882F90E033
S1130EE00E9457020E9455014CC00E94C8018F897C
S1130EF0882F90E00E9457020E94550191E0898159
S1130F00833509F090E081E02A812A3309F080E0FA
S1130F108923282F30E08F8991E0823309F090E013
S1130F204F8981E0443309F080E0892B882F90E0D9
S1130F3082239323009729F081E090E099878887A2
S1130F401CC091E08981833509F090E081E02A8119
S1130F502A3309F080E08923282F30E09F8981E03B
S1130F60933309F080E0882F90E082239323009745
S1130F7021F081E090E09B878A878A8189838F8929
S1130F808A83CE014796BC0184EB92E00E945A0307
S1130F90009709F0AACF8A859B85009709F458C069
S1130FA00000CE014996BC0184EB92E00E945A03F2
S1130FB00097B9F78EE591E00E94BE0488EE93E0B5
S1130FC00E949F000000CE014996BC0184EB92E090
S1130FD00E945A030097B9F3898D8B830E94C8013C
S1130FE0898D882F90E00E9457020E945501898DB7
S1130FF0282F30E08B81882F90E0B9010E94FA04F9
S1131000009729F10E9400010E94F0008BE691E014
S11310100E94BE048DE290E02DE230E0F9012081CF
S11310202F77FC0120830000CE014996BC018CE49B
S113103092E00E945A030097B9F78DE290E02DE206
S113104030E0F90120812068FC01208310C10FC128
S113105088859985009709F0FCC00000CE01499667
S1131060BC0184EB92E00E945A030097B9F789E728
S113107091E00E94BE0488EE93E00E949F0000006D
S1131080CE014996BC0184EB92E00E945A0300977A
S1131090B9F3898D8B830E94C801898D882F90E0D4
S11310A00E9457020E945501898D282F30E08B81C0
S11310B0882F90E0B9010E94FA04009709F4C9C08E
S11310C00000CE014996BC0184EB92E00E945A03D1
S11310D00097B9F787E891E00E94BE0488EE93E098
S11310E00E949F000000CE014996BC0184EB92E06F
S11310F00E945A030097B9F3898D8B830E94C8011B
S1131100898D882F90E00E9457020E945501898D95
S1131110282F30E08B81882F90E0B9010E94FA04D7
S1131120009709F496C00000CE014996BC0184EBF7
S113113092E00E945A030097B9F789E991E00E946E
S1131140BE0488EE93E00E949F000000CE01499601
S1131150BC0184EB92E00E945A030097B9F3898D95
S11311608B830E94C801898D882F90E00E945702CA
S11311700E945501898D282F30E08B81882F90E0C3
S1131180B9010E94FA04009709F463C00000CE017B
S11311904996BC0184EB92E00E945A030097B9F788
S11311A08DEA91E00E94BE0488EE93E00E949F00C5
S11311B00000CE014796BC0184EB92E00E945A03E2
S11311C00097B9F38A8189838F898A830E94C80131
S11311D08F89882F90E00E9457020E94550129C0F0
S11311E00E94C8018F89882F90E00E9457020E94B4
S11311F0550191E08981843709F090E081E02A81EA
S1131200253609F080E08923282F30E09F8981E08A
S1131210943609F080E0882F90E08223932300978E
S113122021F081E090E0998788878A8189838F897A
S11312308A83CE014796BC0184EB92E00E945A0354
S1131240009771F688859985009709F002C000001F
S1131250F0CF88859985009751F0898D282F30E04B
S11312608B81882F90E0B9010E945C05D1C0D0C069
S11312700000CE014996BC0184EB92E00E945A031F
S11312800097B9F783EE91E00E94DC0488EE93E0C6
S11312900E949F000000CE014996BC0184EB92E0BD
S11312A00E945A030097B9F3898D8B830E94C80169
S11312B0898D882F90E00E9457020E945501898DE4
S11312C0282F30E08B81882F90E0B9010E942B05F4
S11312D0009709F49DC00000CE014996BC0184EB3F
S11312E092E00E945A030097B9F78BEF91E00E94B5
S11312F0DC048DE193E00E94DC048CE192E00E9426
S1131300DC0480E393E00E94DC048EE192E00E941E
S1131310DC0488EE93E00E949F000000CE01499611
S1131320BC0184EB92E00E945A030097B9F3898DC3
S11313308B830E94C801898D882F90E00E945702F8
S11313400E945501898D282F30E08B81882F90E0F1
S1131350B9010E942B05009709F45AC00000CE0180
S11313604996BC0184EB92E00E945A030097B9F7B6
S11313708DE292E00E94DC0488EE93E00E949F00DC
S11313800000CE014996BC0184EB92E00E945A030E
S11313900097B9F3898D8B830E94C801898D882FAA
S11313A090E00E9457020E945501898D282F30E059
S11313B08B81882F90E0B9010E942B05009741F1A1
S11313C088E893E10E949F008FE392E00E94DC048E
S11313D08DE290E02DE230E0F90120812F77FC01CD
S11313E020830000CE014996BC018CE492E00E9467
S11313F05A030097B9F78DE290E02DE230E0F9014D
S113140020812068FC0120830E9400010E94F000DA
S1131410209118033091190380911A0390911B03B2
S11314202817390709F10E94C8010CC0CE0148965B
S1131430BC0184EB92E00E945A03888D882F90E0CF
S11314400E945702209118033091190380911A03C6
S113145090911B032817390749F78FE290E0FC01AC
S11314608081888F0E9455011D821C821F821E82EA
S11314708FC081E290E0FC01808180788E8B8E8920
S1131480882321F08F890E94120403C08F890E944F
S11314902C048E819F81009709F43EC08F89282FE8
S11314A030E08A8991E0980F9A8B882F90E0B901F7
S11314B00E9481008F89803479F58C819D81019609
S11314C09D838C831F821E828C819D818230910535
S11314D019F51A8A1D821C820E94450184EF91E04D
S11314E00E949F000E94150184EF91E00E949F00DA
S11314F00E94450184EF91E00E949F000E94150123
S113150084EF91E00E949F000E94450184EF91E0E6
S11315100E949F000E94150191E08981893409F09D
S113152090E081E02A81203509F080E08923282F8A
S113153030E09F8981E09A3309F080E0882F90E0C1
S113154082239323009721F081E090E09F838E8390
S113155091E08981823509F090E081E02A81243587
S113156009F080E08923282F30E09F8981E09A33B5
S113157009F080E0882F90E082239323009721F0E4
S113158081E090E09F838E838A8189838F898A8317
S1131590CE014796BC018CE492E00E945A03009766
S11315A009F067CFEECB97FB072E16F4009407D013
S11315B077FD09D00E94E70A07FC05D03EF4909518
S11315C081959F4F0895709561957F4F0895AA1B4B
S11315D0BB1B51E107C0AA1FBB1FA617B70710F01A
S11315E0A61BB70B881F991F5A95A9F7809590954C
S11315F0BC01CD010895E199FECF9FBB8EBBE09A5B
S113160099278DB30895262FE199FECF9FBB8EBBFA
S11316102DBB0FB6F894E29AE19A0FBE0196089595
S1071620F894FFCF68
S113162441542B4349504D55583D300D0A00415403
S11316342B43495053544152543D22544350222C79
S11316440041542B4349504D4F44453D310D0A004C
S113165441542B43495053454E440D0A007769665F
S1131664696D6F64756C65206F6B002B2B2B0041C7
S1131674542B4349505354415455530D0A00415477
S11316842B43495053454E440D0A00776966696DEE
S11316946F64756C65206F6B0041542B43574D4F39
S11316A444453D310D0A0041542B43574155544F91
S11316B4434F4E4E3D310D0A0041542B435753546E
S11316C4415254534D4152543D330D0A0041542B5D
S11316D443575354415254444953434F5645523D3E
S11316E42267685F343234383332346134643032DC
S11316F4222C2261697468696E6B6572222C313004
S11317040D0A00636F6E6669672C7365742C7061CF
S113171472616D7372632C310D0A00636F6E6669B6
S1131724672C7365742C7463702C312C74746C750D
S11317346172742C312C312C2C312C002C002C3063
S11317442C302C302C302C302C300D0A00636F6E6E
S11317546669672C7365742C736176650D0A0034AD
S10F1764476D6F64756C65206F6B0000AE
S9030000FC
