:100000000C944C000C946B000C946B000C946B00E3
:100010000C946B000C946B000C946B000C946B00B4
:100020000C946B000C946B000C946B000C946B00A4
:100030000C946B000C946B000C946B000C946B0094
:100040000C946B000C946A020C947D040C946B006D
:100050000C946B000C946B000C946B000C946B0074
:100060000C946B000C946B000C946B000C946B0064
:100070000C946B000C946B000C94B9040C946B0002
:100080000C946B000C946B000C946B006364696EB1
:100090006F70737578585B0011241FBECFEFD0E1ED
:1000A000DEBFCDBF13E0A0E0B1E0EAE3FAE200E09A
:1000B0000BBF02C007900D92A432B107D9F728E018
:1000C000A4E2B3E001C01D92AB32B207E1F70E9497
:1000D00033080C941B150C940000CF93DF9300D0D1
:1000E000CDB7DEB79A8389838CE390E0FC018081F1
:1000F000882F90E0827099270097B1F789819A81C3
:100100000E94F3130F900F90DF91CF910895CF933A
:10011000DF9300D01F92CDB7DEB79A8389836B83BC
:100120008CE390E0FC018081882F90E08270992719
:100130000097B1F789819A816B810E94FB130F9020
:100140000F900F90DF91CF910895CF93DF9300D060
:1001500000D000D0CDB7DEB79E838D831A8219827E
:1001600013C01C821B8205C08B819C8101969C83DD
:100170008B838B819C81853724E09207A8F389814A
:100180009A8101969A83898329813A818D819E8102
:100190002817390730F326960FB6F894DEBF0FBE46
:1001A000CDBFDF91CF910895CF93DF93CDB7DEB769
:1001B0008AE390E02AE330E0F90120812760FC0126
:1001C00020838BE390E02BE330E0F90120812E7F48
:1001D000FC0120838BE390E02BE330E0F9012081E8
:1001E0002660FC012083DF91CF910895CF93DF93A8
:1001F000CDB7DEB78BE390E02BE330E0F90120814F
:100200002B7FFC012083DF91CF910895CF93DF9363
:1002100000D0CDB7DEB79A8389838BE390E02BE3E0
:1002200030E0F90120812D7FFC0120830F900F9099
:10023000DF91CF910895CF93DF93CDB7DEB78BE3F6
:1002400090E02BE330E0F90120812E7FFC01208338
:10025000DF91CF910895CF93DF93CDB7DEB78BE3D6
:1002600090E02BE330E0F90120812460FC01208341
:10027000DF91CF910895CF93DF93CDB7DEB78BE3B6
:1002800090E02BE330E0F90120812260FC01208323
:10029000DF91CF910895CF93DF93CDB7DEB78BE396
:1002A00090E02BE330E0F90120812160FC01208304
:1002B000DF91CF910895CF93DF93CDB7DEB78DE275
:1002C00090E02DE230E0F90120812F7BFC012083BA
:1002D0008DE290E02DE230E0F90120812F77FC01E2
:1002E00020838EE290E02EE230E0F90120812F772A
:1002F000FC0120838DE290E02DE230E0F9012081C5
:100300002F7EFC01208387E390E027E330E0F901B2
:1003100020812860FC01208387E390E027E330E020
:10032000F90120812D7FFC01208387E390E027E302
:1003300030E0F90120812B7FFC01208387E390E0EE
:1003400027E330E0F90120812E7FFC01208388E340
:1003500090E028E330E0F90120812160FC01208356
:100360008DE290E02DE230E0F90120812360FC0174
:1003700020838EE290E02EE230E0F90120812F7799
:10038000FC0120838DE290E02DE230E0F901208134
:10039000206CFC012083DF91CF910895CF93DF93F0
:1003A000CDB7DEB7000088E390E0FC018081882FA4
:1003B00090E0817099270097B1F38AE090E00E9465
:1003C000A50088E390E028E330E0F90120812E7F4A
:1003D000FC0120838DE290E02DE230E0F9012081E4
:1003E0002F77FC0120838EE290E02EE230E0F901CD
:1003F00020812F77FC0120838DE290E02DE230E018
:10040000F90120812061FC01208387E390E027E34C
:1004100030E0F9012081277FFC01208387E390E011
:1004200027E330E0F90120812260FC01208387E38B
:1004300090E027E330E0F90120812460FC01208373
:1004400087E390E027E330E0F90120812160FC019F
:10045000208388E390E028E330E0F90120812E7FBB
:10046000FC0120838DE290E02DE230E0F901208153
:100470002360FC0120838EE290E02EE230E0F9015F
:1004800020812F77FC0120838DE290E02DE230E087
:10049000F90120812064FC0120838AE090E00E9421
:1004A000A500DF91CF910895CF93DF931F92CDB731
:1004B000DEB789838FE290E02981FC012083000070
:1004C0008EE290E0FC0180818823D4F70F90DF91C9
:1004D000CF9108951F920F9200905F000F92112408
:1004E00000905B000F922F933F934F935F936F9316
:1004F0007F938F939F93AF93BF93EF93FF93CF938C
:10050000DF931F92CDB7DEB78FE290E0FC018081D0
:100510008983698186E293E00E9401030F90DF9155
:10052000CF91FF91EF91BF91AF919F918F917F916B
:100530006F915F914F913F912F910F9000925B00CF
:100540000F9000925F000F901F901895CF93DF934C
:1005500000D0CDB7DEB79A8389830E94CE010BC04D
:1005600089819A81FC0180810E94540289819A814B
:1005700001969A83898389819A81FC0180818823ED
:1005800079F70E945B010F900F90DF91CF91089552
:10059000CF93DF9300D000D0CDB7DEB79C838B83A1
:1005A0001A8219820DC02B813C8189819A81820F28
:1005B000931FFC01108289819A8101969A83898315
:1005C00089819A818436910574F38B819C818A5943
:1005D0009F4FFC01118210828B819C818A599F4F11
:1005E000FC01208131818B819C818C599F4FFC01C2
:1005F000318320830F900F900F900F90DF91CF9158
:100600000895CF93DF93CDB7DEB727970FB6F89451
:10061000DEBF0FBECDBF9A8389836B8389819A81A8
:100620008A599F4FFC0180819181019624E630E038
:10063000B9010E947C0E9C0189819A818C599F4F3F
:10064000FC01808191812817390719F480E090E03E
:1006500025C089819A818A599F4FFC0180819181AF
:1006600029813A81820F931F2B81FC01208389818C
:100670009A818A599F4FFC0180819181019624E6DD
:1006800030E0B9010E947C0E9C0189819A818A59CF
:100690009F4FFC013183208381E090E027960FB6C5
:1006A000F894DEBF0FBECDBFDF91CF910895CF93F9
:1006B000DF9300D000D000D0CDB7DEB79A83898316
:1006C0007C836B8389819A818C599F4FFC012081A7
:1006D000318189819A818A599F4FFC018081918162
:1006E0002817390719F480E090E028C089819A81A1
:1006F0008C599F4FFC018081918129813A81820F21
:10070000931FFC0120818B819C81FC0120838981C6
:100710009A818C599F4FFC0180819181019624E63A
:1007200030E0B9010E947C0E9C0189819A818C592C
:100730009F4FFC013183208381E090E026960FB625
:10074000F894DEBF0FBECDBFDF91CF910895CF9358
:10075000DF93CDB7DEB78BE290E0FC0110828AE236
:1007600090E0FC01108285E990E026E0FC01208306
:1007700085E990E025E930E0F9012081277FFC013F
:10078000208389E290E028E0FC01208380E990E06A
:10079000FC0110828AE290E028E9FC01208382E2D9
:1007A00090E022E230E0F90120812260FC01208308
:1007B000DF91CF910895CF93DF93CDB7DEB78BE96B
:1007C00090E0FC0110828AE990E0FC0110828DE942
:1007D00090E026E0FC0120838DE990E02DE930E0F7
:1007E000F9012081277FFC01208389E990E027E639
:1007F000FC01208388E990E0FC0110828AE990E006
:1008000028E9FC01208381E390E021E330E0F90155
:1008100020812860FC012083DF91CF910895CF9340
:10082000DF931F92CDB7DEB7898300008BE290E0A3
:10083000FC018081882F90E0807299270097B1F3A6
:100840008CE290E02981FC0120830F90DF91CF9111
:100850000895CF93DF931F92CDB7DEB78983000051
:100860008BE990E0FC018081882F90E080729927CD
:100870000097B1F38CE990E02981FC0120830F906F
:10088000DF91CF910895CF93DF9300D000D000D0B7
:10089000CDB7DEB79C838B837E836D831A821982EA
:1008A0001CC000008BE290E0FC018081882F90E06A
:1008B000807299270097B1F38CE290E029813A8108
:1008C0004B815C81240F351FF9012081FC012083BD
:1008D00089819A8101969A83898329813A818D81C0
:1008E0009E8128173907ECF226960FB6F894DEBFE2
:1008F0000FBECDBFDF91CF9108951F920F92009050
:100900005F000F92112400905B000F922F933F9392
:100910004F935F936F937F938F939F93AF93BF9307
:10092000EF93FF93CF93DF931F92CDB7DEB78CE2A7
:1009300090E0FC018081898369818EE893E00E94C8
:1009400001030F90DF91CF91FF91EF91BF91AF9194
:100950009F918F917F916F915F914F913F912F91D7
:100960000F9000925B000F9000925F000F901F901D
:1009700018951F920F9200905F000F921124009023
:100980005B000F922F933F934F935F936F937F93EF
:100990008F939F93AF93BF93EF93FF93CF93DF9387
:1009A0001F92CDB7DEB78CE990E0FC01808189838E
:1009B00069818EE893E00E9401030F90DF91CF914F
:1009C000FF91EF91BF91AF919F918F917F916F9127
:1009D0005F914F913F912F910F9000925B000F908C
:1009E00000925F000F901F901895CF93DF9300D077
:1009F000CDB7DEB79A8389830BC089819A81FC01C8
:100A000080810E940F0489819A8101969A8389834B
:100A100089819A81FC018081882379F70F900F905A
:100A2000DF91CF910895CF93DF9300D0CDB7DEB79C
:100A30009A8389830BC089819A81FC0180810E94FD
:100A4000290489819A8101969A83898389819A816F
:100A5000FC018081882379F70F900F90DF91CF916F
:100A60000895CF93DF9300D0CDB7DEB789836A8333
:100A700013C00E94CE018A81882F90E00E94540208
:100A80000E945B0189818F3429F48A818B3411F4AF
:100A900081E00CC08A818983CE010296BC018EE878
:100AA00093E00E945703009721F780E00F900F908A
:100AB000DF91CF910895CF93DF9300D0CDB7DEB70C
:100AC00089836A8313C00E94CE018A81882F90E0B7
:100AD0000E9454020E945B0189818F3629F48A8129
:100AE0008B3611F481E00CC08A818983CE01029695
:100AF000BC018EE893E00E945703009721F780E045
:100B00000F900F90DF91CF910895CF93DF931F92B5
:100B1000CDB7DEB7898389818E3311F481E019C0A6
:100B20000EC00E94CE018981882F90E00E9454025D
:100B30000E945B0189818E3311F481E00AC0CE01ED
:100B40000196BC018EE893E00E945703009749F795
:100B500080E00F90DF91CF910895CF93DF9300D085
:100B6000CDB7DEB79A83898389819A810E94F50483
:100B70008DE00E940F048AE00E940F0488EE93E04B
:100B80000E94A5000F900F90DF91CF910895CF9311
:100B9000DF93CDB7DEB76A970FB6F894DEBF0FBE0E
:100BA000CDBF898F6A8F85E08C8382E08D831E8222
:100BB00082E08F83CE01049664E070E00E944304DB
:100BC00088EE93E00E94A5000000CE014A96BC0189
:100BD0008EE893E00E9457030097B9F38A8D8983CA
:100BE000CE014A96BC018EE893E00E9457030E9412
:100BF000CE018981882F90E00E9454028A8D882F2F
:100C000090E00E9454020E945B018981853009F0C6
:100C1000F0C08A8D823009F0ECC081E0888789E0DD
:100C200097E00E94C20E898787EF95E00E94C20E6E
:100C30008A87CE01089662E070E00E94430489E052
:100C400097E00E94C20EBC0189E097E00E94430435
:100C5000CE010A9661E070E00E94430487EF95E0C0
:100C60000E94C20EBC0187EF95E00E94430488EE0B
:100C700093E00E94A5000000CE014A96BC018EE8D8
:100C800093E00E9457030097B9F38A8D8983CE01C0
:100C90004A96BC018EE893E00E9457030E94CE0161
:100CA0008981882F90E00E9454028A8D882F90E0DD
:100CB0000E9454020E945B018981813009F099C031
:100CC0008A8D882309F095C085E08B8781E08C8729
:100CD0001D8681E08E87CE014296292F2F938F9318
:100CE000CE014196292F2F938F93CE014096292F25
:100CF0002F938F93CE010F96292F2F938F9380E000
:100D000091E0892F8F9380E091E08F9386EF96E0BA
:100D1000892F8F9386EF96E08F930E94020F8DB7F5
:100D20009EB70C960FB6F894DEBF0FBECDBF8F8571
:100D30008B8B88898C8B89898D8B8A898E8B83E2BA
:100D400098E00E94A40E9B838A838A819B81892FCD
:100D500099278F8B8A81888FCE010B9664E070E093
:100D60000E944304CE01439664E070E00E94430475
:100D7000CE01479662E070E00E94430488EE93E063
:100D80000E94A5000000CE014A96BC018EE893E0C7
:100D90000E9457030097B9F38A8D8983CE014A9642
:100DA000BC018EE893E00E9457030E94CE01898126
:100DB000882F90E00E9454028A8D882F90E00E9434
:100DC00054020E945B018981853099F48A8D8823C1
:100DD00081F481E090E09093250380932403000048
:100DE000CE014A96BC018EE893E00E94570300971B
:100DF000B9F76A960FB6F894DEBF0FBECDBFDF918C
:100E0000CF910895CF93DF9300D01F92CDB7DEB777
:100E10008A836B830E9406010000CE010396BC0109
:100E20008EE893E00E9457030097B9F784E191E0C0
:100E30000E94AD050000CE010396BC018EE893E050
:100E40000E9457030097B9F38B8189830E94CE01DA
:100E50008B81882F90E00E9454020E945B018B815D
:100E6000682F89810E943105882309F4F6C00000AB
:100E7000CE010396BC018EE893E00E9457030097D1
:100E8000B9F78BE198E0892F8F938BE198E08F93EE
:100E900088E098E0892F8F9388E098E08F9380E234
:100EA00091E0892F8F9380E291E08F9387EF94E018
:100EB000892F8F9387EF94E08F930E94D30E8DB785
:100EC0009EB708960FB6F894DEBF0FBECDBF87EF72
:100ED00094E00E94AD050000CE010396BC018EE8AF
:100EE00093E00E9457030097B9F38B8189830E9496
:100EF000CE018B81882F90E00E9454020E945B01FA
:100F00008B81682F89810E943105882309F4A5C04F
:100F10000000CE010396BC018EE893E00E945703C7
:100F20000097B9F78AE391E00E94AD050000CE0179
:100F30000396BC018EE893E00E9457030097B9F333
:100F40008B8189830E94CE018B81882F90E00E9443
:100F500054020E945B018B81682F89810E943105B8
:100F6000882309F47AC00000CE010396BC018EE804
:100F700093E00E9457030097B9F787E491E00E943D
:100F8000AD050000CE010396BC018EE893E00E94FF
:100F900057030097B9F38B8189830E94CE018B811F
:100FA000882F90E00E9454020E945B018B81682F81
:100FB00089810E943105882309F44FC00000CE01C9
:100FC0000396BC018EE893E00E9457030097B9F3A3
:100FD0000E94CE018B81882F90E00E9454020E94D3
:100FE0005B018B810E9485058823B9F18B81682F75
:100FF00089810E94C7058091240390912503813047
:10100000910529F082E591E00E94A60226C00E9487
:10101000F60088E791E00E94A60282EB91E00E9430
:10102000F5048DE290E02DE230E0F90120812F7788
:10103000FC0120830000CE010396BC0186E293E010
:101040000E9457030097B9F78DE290E02DE230E05F
:10105000F90120812068FC0120830F900F900F90F0
:10106000DF91CF910895CF93DF93CDB7DEB7A197EE
:101070000FB6F894DEBF0FBECDBF80ED97E00E94A3
:10108000A5008FE590E02FE530E0F90120812F7772
:10109000FC0120830E94D4000E945B0182E290E068
:1010A00022E230E0F90120812F77FC01208383E2E6
:1010B00090E023E230E0F90120812068FC012083E8
:1010C00082E290E022E230E0F9012081277FFC01FA
:1010D000208383E290E023E230E0F9012081286060
:1010E000FC0120830E94A7030E94DB038EE893E0AB
:1010F0000E94C80286E293E00E94C80219821A8206
:101100001F8E1B8219A21D861C861F861E86198AA9
:10111000188A1B8A1A8A1D8A1C8A1F8A1E8A198E9F
:10112000188E1A8E1B8E8FE590E02FE530E0F901C6
:1011300020812068FC01208384E690E00E94A500C5
:1011400081E290E0FC01808188708D8F81E290E0E7
:10115000FC01808180788E8F8D8D882309F062C498
:101160000E943B010E942B01198618861B861A8655
:101170000E944B0188EE93E00E94A5000E941B0193
:1011800080EC91E00E94F50480ED97E00E94A500BC
:101190001B8E8B8D91E0980F9B8F882F90E00E9483
:1011A0006D008C8F8E8D882309F47FC077C08C8D65
:1011B000803431F48C899D8901969D8B8C8B65C020
:1011C0008C899D89009769F48C859D859C012F5F92
:1011D0003F4F3D872C878A50994F2C8DFC012083EF
:1011E00054C08C899D898130910569F48E859F85D5
:1011F0009C012F5F3F4F3F872E878D5D974F2C8D32
:10120000FC01208342C08C899D898230910569F45C
:10121000888999899C012F5F3F4F398B288B885F84
:10122000974F2C8DFC01208330C08C899D898330A1
:10123000910569F48A899B899C012F5F3F4F3B8B05
:101240002A8B855E974F2C8DFC0120831EC08C89D4
:101250009D898430910569F48E899F899C012F5F57
:101260003F4F3F8B2E8B875F984F2C8DFC01208347
:101270000CC0888D998D9C012F5F3F4F398F288F2F
:1012800089509A4F2C8DFC0120838B8D91E0980F13
:101290009B8F882F90E00E946D008C8F8C899D8998
:1012A000863091050CF483CF35C02FC08C8D8034EF
:1012B00031F48C899D8901969D8B8C8B1DC08C8906
:1012C0009D89009769F48C859D859C012F5F3F4F18
:1012D0003D872C878A50994F2C8DFC0120830CC0B0
:1012E0008E859F859C012F5F3F4F3F872E878D5DA9
:1012F000974F2C8DFC0120838B8D91E0980F9B8F55
:10130000882F90E00E946D008C8F8C899D8982309F
:10131000910564F28C859D858A50994FFC0110825D
:101320008E859F858D5D974FFC01108288899989F4
:10133000885F974FFC0110828A899B89855E974F51
:10134000FC0110828E899F89875F984FFC01108273
:10135000888D998D89509A4FFC0110821B8E1D86B5
:101360001C861F861E86198A188A1B8A1A8A1D8A5D
:101370001C8A1F8A1E8A198E188E8E8D882389F1E9
:1013800086EF96E00E94A60284EC91E00E94A602FD
:1013900083E298E00E94A60284EC91E00E94A602FB
:1013A00088E098E00E94A60284EC91E00E94A602E8
:1013B0008BE198E00E94A60284EC91E00E94A602D4
:1013C00089E097E00E94A60284EC91E00E94A602C8
:1013D00087EF95E00E94A60284EC91E00E94A602AD
:1013E00010C086EF96E00E94A60284EC91E00E9475
:1013F000A60283E298E00E94A60284EC91E00E949B
:10140000A6028E8D882309F449C20000CE014F96B2
:10141000BC018EE893E00E9457030097B9F786EC71
:1014200091E00E94AD050000CE014F96BC018EE810
:1014300093E00E9457030097B9F38A8189838F8DC7
:101440008A830E94CE018F8D882F90E00E945402E3
:101450000E945B014CC00E94CE018F8D882F90E0CE
:101460000E9454020E945B0191E08981833509F05A
:1014700090E081E02A812A3309F080E08923282F37
:1014800030E08F8D91E0823309F090E04F8D81E064
:10149000443309F080E0892B882F90E08223932346
:1014A000009729F081E090E0998788871CC091E03F
:1014B0008981833509F090E081E02A812A3309F09F
:1014C00080E08923282F30E09F8D81E0933309F05D
:1014D00080E0882F90E082239323009721F081E021
:1014E00090E09B878A878A8189838F8D8A83CE014A
:1014F0004F96BC018EE893E00E945703009709F0D5
:10150000AACF8A859B85009709F4D8C00E9406015E
:101510000000CE018196BC018EE893E00E94570343
:101520000097B9F783ED91E00E94AD050000CE0170
:101530008196BC018EE893E00E9457030097B9F3AF
:1015400089A18B830E94CE0189A1882F90E00E94FF
:1015500054020E945B0189A1682F8B810E94310592
:10156000882309F4AAC00000CE018196BC018EE850
:1015700093E00E9457030097B9F780EE91E00E9434
:10158000AD050000CE018196BC018EE893E00E947B
:1015900057030097B9F389A18B830E94CE0189A1DB
:1015A000882F90E00E9454020E945B0189A1682F5D
:1015B0008B810E943105882309F47FC00000CE0191
:1015C0008196BC018EE893E00E9457030097B9F31F
:1015D0000E94CE0189A1882F90E00E9454020E94AF
:1015E0005B0189A10E948505882309F466C080916A
:1015F00024039091250381309105C1F189A1682FC1
:101600008B810E94C705809124039091250381302E
:10161000910529F08BEE91E00E94A6024EC00E9437
:10162000F60081E192E00E94A6028BE492E00E9423
:10163000F5048DE290E02DE230E0F90120812F7772
:10164000FC0120830000CE018196BC0186E293E07C
:101650000E9457030097B9F78DE290E02DE230E049
:10166000F90120812068FC01208317C10E94F60047
:1016700081E192E00E94A6028BE492E00E94F504D0
:101680008DE290E02DE230E0F90120812F77FC011E
:1016900020830000CE018196BC0186E293E00E9487
:1016A00057030097B9F78DE290E02DE230E0F901A1
:1016B00020812068FC012083F0C0EFC088859985D7
:1016C000009709F0E0C00000CE018196BC018EE8D1
:1016D00093E00E9457030097B9F789E592E00E94D2
:1016E000AD050000CE018196BC018EE893E00E941A
:1016F00057030097B9F389A18B830E94CE0189A17A
:10170000882F90E00E9454020E945B0189A1682FFB
:101710008B810E943105882309F4B5C00000CE01F9
:101720008196BC018EE893E00E9457030097B9F7B9
:1017300085E692E00E94AD050000CE018196BC01D5
:101740008EE893E00E9457030097B9F389A18B8339
:101750000E94CE0189A1882F90E00E9454020E942D
:101760005B0189A1682F8B810E943105882309F4D0
:101770008AC00000CE018196BC018EE893E00E94F1
:1017800057030097B9F785E792E00E94AD05000086
:10179000CE018196BC018EE893E00E94570300972A
:1017A000B9F389A18B830E94CE0189A1882F90E093
:1017B0000E9454020E945B0189A1682F8B810E94C4
:1017C0003105882309F45FC00000CE018196BC0179
:1017D0008EE893E00E9457030097B9F787E892E0FC
:1017E0000E94AD050000CE014F96BC018EE893E04B
:1017F0000E9457030097B9F38A8189838F8D8A836A
:101800000E94CE018F8D882F90E00E9454020E948A
:101810005B0129C00E94CE018F8D882F90E00E942D
:1018200054020E945B0191E08981843709F090E0C5
:1018300081E02A81253609F080E08923282F30E0D5
:101840009F8D81E0943609F080E0882F90E082231C
:101850009323009721F081E090E0998788878A811F
:1018600089838F8D8A83CE014F96BC018EE893E0E9
:101870000E945703009771F688859985009709F0B3
:1018800002C00000F0CF88859985009731F089A1CA
:10189000682F8B810E940207C5C0C4C00000CE0122
:1018A0008196BC018EE893E00E9457030097B9F738
:1018B0008BEB92E00E94130588EE93E00E94A50056
:1018C0000000CE018196BC018EE893E00E94570390
:1018D0000097B9F389A18B830E94CE0189A1882F3B
:1018E00090E00E9454020E945B0189A1682F8B81C5
:1018F0000E945B05882309F495C00000CE01819603
:10190000BC018EE893E00E9457030097B9F783ED7E
:1019100092E00E94130586EF96E00E94130584EF83
:1019200092E00E94130583E298E00E94130586EF7F
:1019300092E00E94130588EE93E00E94A50000004B
:10194000CE018196BC018EE893E00E945703009778
:10195000B9F389A18B830E94CE0189A1882F90E0E1
:101960000E9454020E945B0189A1682F8B810E9412
:101970005B05882309F456C00000CE018196BC01A6
:101980008EE893E00E9457030097B9F785E093E053
:101990000E94130588EE93E00E94A5000000CE018E
:1019A0008196BC018EE893E00E9457030097B9F33B
:1019B00089A18B830E94CE0189A1882F90E00E948B
:1019C00054020E945B0189A1682F8B810E945B05F4
:1019D000882341F188E893E10E94A50087E193E024
:1019E0000E9413058DE290E02DE230E0F9012081A4
:1019F0002F77FC0120830000CE018196BC0186E296
:101A000093E00E9457030097B9F78DE290E02DE232
:101A100030E0F90120812068FC0120830E9406014A
:101A20000E94F6002091F2033091F3038091F403B9
:101A30009091F5032817390709F10E94CE010CC0D7
:101A4000CE018096BC018EE893E00E94570388A1E6
:101A5000882F90E00E9454022091F2033091F3030A
:101A60008091F4039091F5032817390749F78FE225
:101A700090E0FC01808188A30E945B011D821C8292
:101A80001F821E822EC181E290E0FC01808180785D
:101A90008E8F8E8D882321F08F8D0E940F0403C0BE
:101AA0008F8D0E9429048E819F81009709F46DC05B
:101AB0008F8D282F30E08A8D91E0980F9A8F882F94
:101AC00090E0B9010E9487008F8D803409F05DC0DD
:101AD0008C819D8101969D838C831F821E828E8DB9
:101AE000882341F18C819D818630910519F51A8EEC
:101AF0001D821C820E944B0184EF91E00E94A50090
:101B00000E941B0184EF91E00E94A5000E944B01FE
:101B100084EF91E00E94A5000E941B0184EF91E0F8
:101B20000E94A5000E944B0184EF91E00E94A50055
:101B30000E941B018E8D882341F58C819D8182300E
:101B4000910519F51A8E1D821C820E944B0184EFAB
:101B500091E00E94A5000E941B0184EF91E00E9489
:101B6000A5000E944B0184EF91E00E94A5000E9415
:101B70001B0184EF91E00E94A5000E944B0184EFBD
:101B800091E00E94A5000E941B0191E089818934A7
:101B900009F090E081E02A81203509F080E0892376
:101BA000282F30E09F8D81E09A3309F080E0882F64
:101BB00090E082239323009721F081E090E09F83BF
:101BC0008E8391E08981823509F090E081E02A815D
:101BD000243509F080E08923282F30E09F8D81E0B3
:101BE0009A3309F080E0882F90E0822393230097B6
:101BF00021F081E090E09F838E8391E08981893696
:101C000009F090E081E02A81203709F080E0892303
:101C1000282F30E09F8D81E09A3309F080E0882FF3
:101C200090E082239323009721F081E090E09F834E
:101C30008E8391E08981823709F090E081E02A81EA
:101C4000243709F080E08923282F30E09F8D81E040
:101C50009A3309F080E0882F90E082239323009745
:101C600021F081E090E09F838E8391E0898185342B
:101C700009F090E081E02A81223509F080E0892393
:101C8000282F30E09F8D81E09A3309F080E0882F83
:101C900090E082239323009721F081E090E09F83DE
:101CA0008E8391E08981873509F090E081E02A8177
:101CB000243409F080E08923282F30E09F8D81E0D3
:101CC0009A3309F080E0882F90E0822393230097D5
:101CD00021F081E090E09F838E838A8189838F8DBC
:101CE0008A83CE014F96BC0186E293E00E9457039F
:101CF000009709F0C8CE20CA97FB072E16F400946F
:101D000007D077FD09D00E94900E07FC05D03EF465
:101D1000909581959F4F0895709561957F4F089597
:101D2000AA1BBB1B51E107C0AA1FBB1FA617B70701
:101D300010F0A61BB70B881F991F5A95A9F780951D
:101D40009095BC01CD010895FC0188279927E8945E
:101D500021912032E9F3293010F02E30C8F32B32D4
:101D600041F02D3239F4689404C00E94CB0E820FEA
:101D7000911D219120532A30C0F31EF49095819536
:101D80009F4F0895FC0101900020E9F78095909500
:101D90008E0F9F1F08957AE0979F902D879F802D2B
:101DA000910D112408950F931F93CF93DF93CDB717
:101DB000DEB72E970FB6F894DEBF0FBECDBF0D89EC
:101DC0001E8986E08C831A8309838FEF9FE79E83A9
:101DD0008D83AE01475E5F4F6F89788DCE0101968E
:101DE0000E94240FEF81F885E00FF11F10822E96DC
:101DF0000FB6F894DEBF0FBECDBFDF91CF911F911C
:101E00000F910895CF93DF93CDB7DEB72E970FB61E
:101E1000F894DEBF0FBECDBF85E08C838B899C8993
:101E20009A838983AE01495E5F4F6D897E89CE01B9
:101E300001960E94BC122E960FB6F894DEBF0FBE1C
:101E4000CDBFDF91CF9108952F923F924F925F9235
:101E50006F927F928F929F92AF92BF92CF92DF92BA
:101E6000EF92FF920F931F93CF93DF93CDB7DEB71F
:101E70002C970FB6F894DEBF0FBECDBF7C016B016F
:101E80008A01FC0117821682838181FFBDC1CE01C8
:101E900001964C01F7019381F60193FD859193FF23
:101EA00081916F01882309F4ABC1853239F493FD28
:101EB000859193FF81916F01853229F4B70190E0FC
:101EC0000E946F14E7CF512C312C20E02032A0F477
:101ED0008B3269F030F4803259F0833269F420613A
:101EE0002CC08D3239F0803339F4216026C0226055
:101EF000246023C0286021C027FD27C030ED380FA3
:101F00003A3078F426FF06C0FAE05F9E300D1124C7
:101F1000532E13C08AE0389E300D1124332E2062D8
:101F20000CC08E3221F426FD6BC1206406C08C36B5
:101F300011F4206802C0883641F4F60193FD8591C2
:101F400093FF81916F018111C1CF982F9F7D95548F
:101F5000933028F40C5F1F4FFFE3F9830DC08336E5
:101F600031F0833771F0833509F05BC022C0F8018E
:101F7000808189830E5F1F4F44244394512C540168
:101F800015C03801F2E06F0E711CF801A080B1801D
:101F900026FF03C0652D70E002C06FEF7FEFC50123
:101FA0002C870E9426142C0183012C852F77222E4A
:101FB00017C03801F2E06F0E711CF801A080B180EB
:101FC00026FF03C0652D70E002C06FEF7FEFC501F3
:101FD0002C870E941B142C012C852068222E830143
:101FE00023FC1BC0832D90E048165906B0F4B701BE
:101FF00080E290E00E946F143A94F4CFF50127FC40
:10200000859127FE81915F01B70190E00E946F14D6
:1020100031103A94F1E04F1A51084114510471F70C
:10202000E5C0843611F0893639F5F80127FF07C07D
:1020300060817181828193810C5F1F4F08C0608134
:102040007181882777FD8095982F0E5F1F4F2F761F
:10205000B22E97FF09C090958095709561957F4F3E
:102060008F4F9F4F2068B22E2AE030E0A4010E94DB
:10207000BA14A82EA81844C0853729F42F7EB22E92
:102080002AE030E025C0F22FF97FBF2E8F36C1F055
:1020900018F4883579F0B4C0803719F0883721F00A
:1020A000AFC02F2F2061B22EB4FE0DC08B2D8460E7
:1020B000B82E09C024FF0AC09F2F9660B92E06C013
:1020C00028E030E005C020E130E002C020E132E04D
:1020D000F801B7FE07C060817181828193810C5F36
:1020E0001F4F06C06081718180E090E00E5F1F4F3E
:1020F000A4010E94BA14A82EA818FB2DFF77BF2EAA
:10210000B6FE0BC02B2D2E7FA51450F4B4FE0AC0D2
:10211000B2FC08C02B2D2E7E05C07A2C2B2D03C0BF
:102120007A2C01C0752C24FF0DC0FE01EA0DF11DB3
:102130008081803311F4297E09C022FF06C0739488
:10214000739404C0822F867809F0739423FD13C022
:1021500020FF06C05A2C731418F4530C5718732C14
:10216000731468F4B70180E290E02C870E946F142A
:1021700073942C85F5CF731410F4371801C0312CEB
:1021800024FF12C0B70180E390E02C870E946F14F7
:102190002C8522FF17C021FF03C088E590E002C014
:1021A00088E790E0B7010CC0822F867859F021FDB6
:1021B00002C080E201C08BE227FD8DE2B70190E012
:1021C0000E946F14A51438F4B70180E390E00E94D8
:1021D0006F145A94F7CFAA94F401EA0DF11D80818F
:1021E000B70190E00E946F14A110F5CF332009F4DD
:1021F00051CEB70180E290E00E946F143A94F6CF7E
:10220000F7018681978102C08FEF9FEF2C960FB662
:10221000F894DEBF0FBECDBFDF91CF911F910F911C
:10222000FF90EF90DF90CF90BF90AF909F908F90F6
:102230007F906F905F904F903F902F90089520FD7A
:1022400009C0FC0123FD05C022FF02C07383628325
:1022500051834083089544FD10C046FD10C0DB014A
:10226000FC01AA0FBB1FEE1FFF1F1094D1F76A0FCE
:102270007B1F8E1F9F1F31E003C033E001C034E09D
:10228000660F771F881F991F3150D1F7620F711D9C
:10229000811D911D08950F931F93CF93DF938C01A0
:1022A000C8010E943114EC0197FD08C00E94081477
:1022B000892BB1F7B801CE010E94A114CE01DF91A4
:1022C000CF911F910F9108958F929F92AF92CF92CD
:1022D000DF92EF92FF920F931F93CF93DF93EC0166
:1022E000A62E4A01022F0E943114AC0155274B3211
:1022F000510521F04D32510551F40068AA9411F4B2
:1023000080E067C0CE010E94311497FDF9CF102FF5
:102310001D7F302F307301F58033F1F4FF24FA94E0
:10232000FA0C09F442C0CE010E94311497FD3DC061
:10233000382F3F7D383551F41264AA94AA94A9F13C
:10234000CE010E94311497FF07C02FC006FF02C0C4
:10235000126001C01261AF2CC12CD12C760120ED8E
:10236000280F283080F014FF04C0BE010E94A11481
:1023700019C02A3040F016FFF8CF2F7D3FEE320F04
:10238000363098F72750412FC701B6010E942B1114
:102390006B017C011260AA9459F0CE010E943114A5
:1023A00097FFDDCF11FD04C0ABCFC12CD12C76013E
:1023B00017FF08C0F094E094D094C094C11CD11CC5
:1023C000E11CF11C212FB701A601C4010E941F11BD
:1023D00081E0DF91CF911F910F91FF90EF90DF90FF
:1023E000CF90AF909F908F9008957F928F929F9201
:1023F000AF92BF92CF92DF92EF92FF920F931F9313
:10240000CF93DF93CDB7DEB7A1970FB6F894DEBFB9
:102410000FBECDBF5C017A018E010F5F1F4F6801B7
:1024200080E2D8011D928A95E9F7F501738040E0BA
:1024300050E0812CB0E0912C81E090E0F90173FC38
:10244000A59173FEA1918F017A2F9F01A11103C065
:1024500080E090E07DC0AE3519F44115510559F189
:10246000E92DF0E0E417F5073CF4AD3569F1AD3244
:1024700019F4BB2319F103C0B11101C08A2EE72F53
:10248000E695E695E69586010E0F111DF801A72F3A
:10249000A7708C0102C0000F111FAA95E2F7D801A6
:1024A000B081BA2BB083781559F0781510F47F5F9E
:1024B000E6CF7150E4CF9924939403C0B1E001C0FA
:1024C000B0E04F5F5F4FBACFBB2319F08E818062BF
:1024D0008E83911003C09924939415C0F601CE0108
:1024E0008196208120952193E817F907D1F7F3CF42
:1024F000E114F10429F0D7018C93F70131967F01A3
:10250000615001F1912CC50169A30E94311469A1A8
:1025100097FD16C0282F269526952695F601E20FE1
:10252000F11D208130E0AC014770552702C0359580
:1025300027954A95E2F720FDDBCFB5010E94A11453
:10254000911086CFE114F10411F0D7011C92C8015B
:10255000A1960FB6F894DEBF0FBECDBFDF91CF912D
:102560001F910F91FF90EF90DF90CF90BF90AF90B1
:102570009F908F907F9008954F925F927F928F925D
:102580009F92AF92BF92CF92DF92EF92FF920F9302
:102590001F93CF93DF931F92CDB7DEB78C012B0132
:1025A0007A01FC0117821682A12CF801D380F20176
:1025B000D3FC8591D3FE8191382F2F01882309F414
:1025C000FCC090E039830E9408143981892B21F0E6
:1025D000C8010E944B11E9CF353241F4F201D3FC1E
:1025E0003591D3FE31912F01353269F4C801398319
:1025F0000E943114398197FDDEC03817B1F2B8015D
:102600000E94A114DAC03A3241F4D3FC3591D3FED2
:1026100031912F01BB24B39401C0B12C712C20ED5A
:10262000230F2A3090F4FB2DF260BF2E672D70E04F
:1026300080E090E040E20E942B11762EF201D3FC64
:102640003591D3FE31912F01EACFB1FE03C0711055
:1026500003C0B3C077247A94383619F03C3661F061
:1026600014C0F201D3FC3591D3FE31912F013836DD
:1026700061F4FB2DF860BF2E8B2D8460B82EF20123
:10268000D3FC3591D3FE31912F01332309F495C04A
:10269000632F70E08CE890E039830E941014398138
:1026A000892B09F48AC0B0FC07C0F701C080D18033
:1026B000C70102967C0102C0C12CD12C3E3651F4D8
:1026C000F8014681578160E070E02B2DC6010E9421
:1026D0001F116BCF3336A1F4B1FC02C07724739481
:1026E000C8010E94311497FD66C0C114D10429F0BD
:1026F000F6018083C60101966C017A9489F757C070
:102700003B3559F49201A601672DC8010E94F511CD
:102710002C01009709F04BC045C0C80139830E94C5
:102720004B11398197FD47C03F3669F128F43436A3
:1027300031F1393679F12BC0333769F03537F9F09B
:1027400026C0C114D10429F0F6018082C601019689
:102750006C017A9471F0C8010E9431144C0197FD0C
:1027600008C00E940814892B61F3B801C4010E94BB
:10277000A114C114D104D9F0F601108218C0FB2DA8
:10278000F062BF2E07C08B2D8061B82E03C09B2D39
:102790009064B92E2B2DA601672DC8010E946411EB
:1027A000811105C0F8018381807329F406C0B0FC53
:1027B000FCCEA394FACEAA2019F08A2D90E002C094
:1027C0008FEF9FEF0F90DF91CF911F910F91FF90AF
:1027D000EF90DF90CF90BF90AF909F908F907F90C1
:1027E0005F904F900895E199FECF9FBB8EBBE09A1A
:1027F00099278DB30895262FE199FECF9FBB8EBBFD
:102800002DBB0FB6F894E29AE19A0FBE0196089597
:1028100091110EC1803219F089508550D0F708957A
:10282000FC010590061621F00020D9F7C00108959B
:102830003197CF010895FC0105906150704001105F
:10284000D8F7809590958E0F9F1F0895FC016150D9
:10285000704001900110D8F7809590958E0F9F1FC2
:102860000895CF93DF93EC012B8120FF33C026FF27
:102870000AC02F7B2B838E819F8101969F838E833D
:102880008A8190E029C022FF0FC0E881F981808110
:10289000992787FD9095009719F420622B831AC021
:1028A0003196F983E8830EC0EA85FB85099597FF89
:1028B00009C02B81019611F480E101C080E2822BD6
:1028C0008B8308C02E813F812F5F3F4F3F832E8334
:1028D000992702C08FEF9FEFDF91CF9108950F935B
:1028E0001F93CF93DF93182F092FEB018B8181FD6D
:1028F00003C08FEF9FEF20C082FF10C04E815F8129
:102900002C813D81421753077CF4E881F9819F01B6
:102910002F5F3F4F39832883108306C0E885F985F0
:10292000812F0995892B29F72E813F812F5F3F4FFA
:102930003F832E83812F902FDF91CF911F910F9195
:102940000895FB01238120FF12C026FD10C08F3F98
:102950003FEF930761F082832F7D206423832681DC
:1029600037812150310937832683992708958FEFC6
:102970009FEF0895FA01AA27283051F1203181F103
:10298000E8946F936E7F6E5F7F4F8F4F9F4FAF4F77
:10299000B1E03ED0B4E03CD0670F781F891F9A1F8A
:1029A000A11D680F791F8A1F911DA11D6A0F711D3E
:1029B000811D911DA11D20D009F468943F912AE04A
:1029C000269F11243019305D3193DEF6CF01089532
:1029D000462F4770405D4193B3E00FD0C9F7F6CF63
:1029E000462F4F70405D4A3318F0495D31FD40522B
:1029F000419302D0A9F7EACFB4E0A69597958795C1
:102A000077956795BA95C9F700976105710508959F
:102A10009B01AC010A2E069457954795379527954B
:102A2000BA95C9F7620F731F841F951FA01D0895E3
:0A2A3000992788270895F894FFCF36
:102A3A00256868752E256868752E256868752E259F
:102A4A006868750041542B4349504D55583D300034
:102A5A0041542B43495053544152543D22544350FC
:102A6A00222C222573222C25730041542B434950D2
:102A7A004D4F44453D310041542B43495053454E37
:102A8A004400536F636B73352070726F78792073CB
:102A9A00657276696365206661696C656420746F26
:102AAA00206275696C6421000D0A536F636B73357C
:102ABA002070726F78792073657276696365206217
:102ACA0075696C6420737563636565646564202643
:102ADA0020776966696D6F64756C65206F6B210D6F
:102AEA000A00776966696D6F64756C65206F6B00A3
:102AFA002B2B2B00400041542B4349505354415433
:102B0A0055530041542B4349504D4F44453D3100E4
:102B1A0041542B43495053454E4400536F636B73E2
:102B2A00352070726F7879207365727669636520D3
:102B3A006661696C656420746F206275696C6421D2
:102B4A00000D0A536F636B73352070726F787920AA
:102B5A0073657276696365206275696C6420737542
:102B6A0063636565646564202620776966696D6FAD
:102B7A0064756C65206F6B210D0A00776966696D53
:102B8A006F64756C65206F6B0041542B43574D4F32
:102B9A0044453D310041542B43574155544F434F0F
:102BAA004E4E3D310041542B4357535441525453D6
:102BBA004D4152543D330041542B435753544152D3
:102BCA0054444953434F5645523D2267685F343255
:102BDA0034383332346134643032222C22616974DD
:102BEA0068696E6B6572222C313000636F6E66699C
:102BFA00672C7365742C706172616D7372632C310A
:102C0A000D0A00636F6E6669672C7365742C7463B2
:102C1A00702C312C74746C756172742C312C312CBB
:102C2A002C312C002C002C302C302C302C302C3019
:102C3A002C300D0A00636F6E6669672C7365742CFD
:102C4A00736176650D0A0034476D6F64756C652093
:042C5A006F6B00009C
:00000001FF
