:100000000C942A000C943C000C943C000C943C0092
:100010000C943C000C943C000C943C000C943C0070
:100020000C943C000C943C000C945D000C94090171
:100030000C943C000C943C000C943C000C943C0050
:100040000C943C000C943C000C943C000C943C0040
:100050000C943C0011241FBECFE5D4E0DEBFCDBF21
:1000600021E0A0E6B0E001C01D92A033B207E1F7A5
:100070000E9430010C94DC010C9400006F9877987A
:100080006C98BC98BF98BD98BE9AC49A8DB1836095
:100090008DB98DB1806C8DB908956F9877986C9AF1
:1000A000BC9ABF9ABD9ABE98C4988DB183608DB931
:1000B00008958FB9779BFECF08951F920F920FB6C8
:1000C0000F9211242F933F934F935F936F937F93DE
:1000D0008F939F93AF93BF93EF93FF936FB180E69E
:1000E00090E00E949600FF91EF91BF91AF919F9198
:1000F0008F917F916F915F914F913F912F910F90D1
:100100000FBE0F901F901895FC0120E030E0119277
:100110002F5F3F4F24363105D1F7FC01EA59FF4FDD
:10012000118210823297118210820895CF939C0120
:10013000C62FFC01EA59FF4F0190F081E02DCF015D
:10014000019664E670E00E94B401D901AC59BF4F3A
:100150004D915C918417950759F0E20FF31FC0830E
:10016000F901EA59FF4F9183808381E090E002C05A
:1001700080E090E0CF910895FC01EC59FF4F208181
:10018000318132964081518124173507A9F0FC0155
:10019000E20FF31F2081FB012083FC01EC59FF4F8C
:1001A00080819181019664E670E00E94B4019183A0
:1001B000808381E090E0089580E090E008950097CA
:1001C00091F040E050E075E764E00AC02150310949
:1001D00021153105D9F74F5F5F4F4817590719F0BF
:1001E000272F362FF3CF08951AB81BB886E880BDA5
:1001F00080B5877F80BD83E089B910BC88E98AB962
:100200008FB780688FBF899A08955D9BFECF8CB9A8
:1002100008951F920F920FB60F9211242F933F93C0
:100220004F935F936F937F938F939F93AF93BF93FE
:10023000EF93FF936CB188EC90E00E949600FF91E1
:10024000EF91BF91AF919F918F917F916F915F914E
:100250004F913F912F910F900FBE0F901F901895C7
:10026000CF93DF9300D0CDB7DEB728E833E150EA73
:1002700045E008C001970097E9F7215031092115A1
:10028000310519F0852F942FF5CF0E943E000E9472
:10029000F40088EC90E00E94840080E690E00E94E8
:1002A00084000F2EFCE2AF2EF1E0BF2EF02D0F2EBA
:1002B000FEE2CF2EF1E0DF2EF02D0F2EF4ECEF2E2C
:1002C000F0E0FF2EF02D06EC10E08AE090E00E94B6
:1002D000DF00F50120813181F601808191812817AD
:1002E000390729F1C49BFECF0E944D00F501208102
:1002F0003181F6018081918128173907A1F0BE0173
:100300006F5F7F4F88EC90E00E94BC00898190E095
:100310000E945900F50120813181F601808191818F
:100320002817390761F78FB18A830E943E00F701D1
:1003300020813181F801808191812817390729F2C4
:10034000BE016E5F7F4F80E690E00E94BC008A8114
:100350000E940501F70120813181F801808191819E
:100360002817390769F7B1CF97FB072E16F40094C9
:1003700007D077FD09D00E94C80107FC05D03EF4E4
:10038000909581959F4F0895709561957F4F089541
:10039000AA1BBB1B51E107C0AA1FBB1FA617B707AB
:1003A00010F0A61BB70B881F991F5A95A9F78095C7
:0C03B0009095BC01CD010895F894FFCF9A
:00000001FF
